{
  "contractName": "IN3WhiteList",
  "abi": [
    {
      "constant": true,
      "inputs": [
        {
          "name": "",
          "type": "address"
        }
      ],
      "name": "whiteListNodes",
      "outputs": [
        {
          "name": "",
          "type": "uint256"
        }
      ],
      "payable": false,
      "stateMutability": "view",
      "type": "function"
    },
    {
      "constant": true,
      "inputs": [],
      "name": "owner",
      "outputs": [
        {
          "name": "",
          "type": "address"
        }
      ],
      "payable": false,
      "stateMutability": "view",
      "type": "function"
    },
    {
      "constant": true,
      "inputs": [],
      "name": "whiteListNodesList",
      "outputs": [
        {
          "name": "",
          "type": "bytes"
        }
      ],
      "payable": false,
      "stateMutability": "view",
      "type": "function"
    },
    {
      "constant": true,
      "inputs": [],
      "name": "lastEventBlockNumber",
      "outputs": [
        {
          "name": "",
          "type": "uint256"
        }
      ],
      "payable": false,
      "stateMutability": "view",
      "type": "function"
    },
    {
      "constant": true,
      "inputs": [],
      "name": "nodeRegistry",
      "outputs": [
        {
          "name": "",
          "type": "address"
        }
      ],
      "payable": false,
      "stateMutability": "view",
      "type": "function"
    },
    {
      "constant": true,
      "inputs": [],
      "name": "VERSION",
      "outputs": [
        {
          "name": "",
          "type": "uint256"
        }
      ],
      "payable": false,
      "stateMutability": "view",
      "type": "function"
    },
    {
      "inputs": [
        {
          "name": "_nodeRegistry",
          "type": "address"
        }
      ],
      "payable": false,
      "stateMutability": "nonpayable",
      "type": "constructor"
    },
    {
      "anonymous": false,
      "inputs": [
        {
          "indexed": false,
          "name": "nodeAddress",
          "type": "address"
        }
      ],
      "name": "LogNodeWhiteListed",
      "type": "event"
    },
    {
      "anonymous": false,
      "inputs": [
        {
          "indexed": false,
          "name": "nodeAddress",
          "type": "address"
        }
      ],
      "name": "LogNodeRemoved",
      "type": "event"
    },
    {
      "constant": false,
      "inputs": [
        {
          "name": "_nodeAddr",
          "type": "address"
        }
      ],
      "name": "whiteListNode",
      "outputs": [],
      "payable": false,
      "stateMutability": "nonpayable",
      "type": "function"
    },
    {
      "constant": false,
      "inputs": [
        {
          "name": "_nodeAddr",
          "type": "address"
        }
      ],
      "name": "removeNode",
      "outputs": [],
      "payable": false,
      "stateMutability": "nonpayable",
      "type": "function"
    },
    {
      "constant": true,
      "inputs": [],
      "name": "getWhiteList",
      "outputs": [
        {
          "name": "tempBytes",
          "type": "bytes"
        }
      ],
      "payable": false,
      "stateMutability": "view",
      "type": "function"
    },
    {
      "constant": true,
      "inputs": [],
      "name": "getProofHash",
      "outputs": [
        {
          "name": "tempBytes",
          "type": "bytes32"
        }
      ],
      "payable": false,
      "stateMutability": "view",
      "type": "function"
    },
    {
      "constant": true,
      "inputs": [],
      "name": "getLastEventBlockNumber",
      "outputs": [
        {
          "name": "",
          "type": "uint256"
        }
      ],
      "payable": false,
      "stateMutability": "view",
      "type": "function"
    }
  ],
  "bytecode": "0x608060405234801561001057600080fd5b50604051610a51380380610a518339818101604052602081101561003357600080fd5b505160048054600160a060020a03909216600160a060020a031992831617905560058054909116331790556109e48061006d6000396000f3fe608060405234801561001057600080fd5b50600436106100c6576000357c0100000000000000000000000000000000000000000000000000000000900480638da5cb5b1161008e5780638da5cb5b146101b85780639bb09e44146101dc578063b2b99ec9146101e4578063c6bd35211461020a578063d9b5c4a514610212578063ffa1ad741461021a576100c6565b806309a9d76c146100cb578063262e2f25146101485780633beae26a1461018057806355e033731461018857806388a3e18614610190575b600080fd5b6100d3610222565b6040805160208082528351818301528351919283929083019185019080838360005b8381101561010d5781810151838201526020016100f5565b50505050905090810190601f16801561013a5780820380516001836020036101000a031916815260200191505b509250505060405180910390f35b61016e6004803603602081101561015e57600080fd5b5035600160a060020a03166102b5565b60408051918252519081900360200190f35b61016e6102c7565b61016e6102ce565b6101b6600480360360208110156101a657600080fd5b5035600160a060020a03166102d4565b005b6101c0610573565b60408051600160a060020a039092168252519081900360200190f35b6100d3610582565b6101b6600480360360208110156101fa57600080fd5b5035600160a060020a031661060d565b61016e610867565b6101c061086d565b61016e61087c565b60028054604080516020601f60001961010060018716150201909416859004938401819004810282018101909252828152606093909290918301828280156102ab5780601f10610280576101008083540402835291602001916102ab565b820191906000526020600020905b81548152906001019060200180831161028e57829003601f168201915b5050505050905090565b60036020526000908152604090205481565b6001545b90565b60005490565b600554600160a060020a031633146103205760405160e560020a62461bcd02815260040180806020018281038252602281526020018061096d6022913960400191505060405180910390fd5b600160a060020a038116600090815260036020526040902054156103785760405160e560020a62461bcd02815260040180806020018281038252602181526020018061098f6021913960400191505060405180910390fd5b604080516c01000000000000000000000000600160a060020a03841602602082015281518082036014018152603490910190915260005b60148110156104745760028282815181106103c657fe5b602001015160f860020a900460f860020a0290808054603f811680603e811461040957600283018455600183166103fb578192505b600160028404019350610421565b600084815260209081902060ff198516905560419094555b50505090600182038154600116156104485790600052602060002090602091828204019190065b815460ff601f929092036101000a918202191660f860020a9094040292909217909155506001016103af565b5060028054600181600116156101000203166002900490506003600084600160a060020a0316600160a060020a0316815260200190815260200160002081905550600260405160200180828054600181600116156101000203166002900480156105155780601f106104f3576101008083540402835291820191610515565b820191906000526020600020905b815481529060010190602001808311610501575b505060408051601f19818403018152828252805160209182012060005543600155600160a060020a038716835290517f1e5791a69bf02a68a78feddcd67c4c2f4ad58a6e51fcadabe67a38242ea308c5945091829003019150a15050565b600554600160a060020a031681565b6002805460408051602060018416156101000260001901909316849004601f810184900484028201840190925281815292918301828280156106055780601f106105da57610100808354040283529160200191610605565b820191906000526020600020905b8154815290600101906020018083116105e857829003601f168201915b505050505081565b600554600160a060020a031633146106595760405160e560020a62461bcd02815260040180806020018281038252602281526020018061096d6022913960400191505060405180910390fd5b600160a060020a038116600090815260036020526040902054806106c7576040805160e560020a62461bcd02815260206004820152601f60248201527f4e6f646520646f65736e7420657869737420696e2077686974656c6973742e00604482015290519081900360640190fd5b600280546000196101006001831615028101909116919091040160005b60148110156107fc5781600101831461079f57600281830381546001816001161561010002031660029004811061071757fe5b8154600116156107365790600052602060002090602091828204019190065b9054901a60f860020a02600260018386030381546001816001161561010002031660029004811061076357fe5b8154600116156107825790600052602060002090602091828204019190065b601f036101000a81548160ff0219169060f860020a840402179055505b60028183038154600181600116156101000203166002900481106107bf57fe5b8154600116156107de5790600052602060002090602091828204019190065b601f036101000a81549060ff021916905580806001019150506106e4565b5060028054600181161561010002600019011681900460131901906108219082610886565b504360015560408051600160a060020a038516815290517f1d5bf364905bc8a18b377cb14c5ac43a939e3e7037981972e20693ce1d7ef0e39181900360200190a1505050565b60015481565b600454600160a060020a031681565b650b2fd2558f2981565b81546001816001161561010002031660029004825481601f106108e15782601f106108c6575b826008026101000360020a80910402828001178355610949565b60ff1916836000526020600020558180016001018355610949565b82601f10610911575082600052602060002080549082601f016020900481019061090b919061094e565b506108ac565b5081800160010183558181111561094957601f016020900481601f01602090048360005260206000209182019101610949919061094e565b505050565b6102cb91905b808211156109685760008155600101610954565b509056fe4f6e6c79206f776e65722063616e2063616c6c20746869732066756e6374696f6e2e4e6f646520616c72656164792065786973747320696e2077686974656c6973742ea265627a7a723058209e4fc6d4cbf9d3c00a2e3fb992eed9f2cb6137cbead4405245bba23f8fa25e4a64736f6c634300050a0032",
  "source": "/***********************************************************\n* This file is part of the Slock.it IoT Layer.             *\n* The Slock.it IoT Layer contains:                         *\n*   - USN (Universal Sharing Network)                      *\n*   - INCUBED (Trustless INcentivized remote Node Network) *\n************************************************************\n* Copyright (C) 2016 - 2018 Slock.it GmbH                  *\n* All Rights Reserved.                                     *\n************************************************************\n* You may use, distribute and modify this code under the   *\n* terms of the license contract you have concluded with    *\n* Slock.it GmbH.                                           *\n* For information about liability, maintenance etc. also   *\n* refer to the contract concluded with Slock.it GmbH.      *\n************************************************************\n* For more information, please refer to https://slock.it   *\n* For questions, please contact info@slock.it              *\n***********************************************************/\n\npragma solidity 0.5.10;\n\n//Contract for maintaining verified IN3 nodes list\n\n\ncontract IN3WhiteList {\n\n    ///DATA\n    bytes32 proofHash;\n\n    uint public lastEventBlockNumber;\n\n    bytes public whiteListNodesList;\n    //in3 nodes list in mappings\n    mapping(address=>uint) public whiteListNodes;\n\n    //for tracking this white listing belongs to which node registry\n    address public nodeRegistry;\n\n    //owner of this white listing contract, can be multisig\n    address public owner;\n\n    // version: major minor fork(000) date(yyyy/mm/dd)\n    uint constant public VERSION = 12300020191017;\n\n    ///EVENTS\n    // event for looking node added to whitelisting contract\n    event LogNodeWhiteListed(address nodeAddress);\n\n    // event for looking node removed from whitelisting contract\n    event LogNodeRemoved(address nodeAddress);\n\n    ///MODIFIERS\n    //only owner modifier\n    modifier onlyOwner {\n        require(msg.sender == owner,\"Only owner can call this function.\");\n        _;\n    }\n\n    ///CONSTRUCTOR\n    //white listing contract constructor\n    constructor(address _nodeRegistry) public {\n        nodeRegistry = _nodeRegistry;\n        owner = msg.sender;\n    }\n\n    ///FUNCTIONS\n    //function for registering node in white listing contract\n    function whiteListNode( address _nodeAddr)\n        external\n        onlyOwner\n    {\n        require(whiteListNodes[_nodeAddr] == 0, \"Node already exists in whitelist.\");\n\n        bytes memory newAddr = abi.encodePacked(_nodeAddr);\n        for (uint i = 0;i<20;i++) {\n            whiteListNodesList.push(newAddr[i]);\n        }\n        whiteListNodes[_nodeAddr] = whiteListNodesList.length;\n\n        proofHash = keccak256(abi.encodePacked(whiteListNodesList));\n\n        lastEventBlockNumber = block.number;\n\n        emit LogNodeWhiteListed(_nodeAddr);\n    }\n\n    //function for removing node from white listing contract\n    function removeNode(address _nodeAddr)\n        external\n        onlyOwner\n    {\n        uint location = whiteListNodes[_nodeAddr];  //location is not zero based index stored in mappings, it starts from 1\n        require(location > 0, \"Node doesnt exist in whitelist.\");\n\n        uint length = whiteListNodesList.length-1;\n\n        for (uint i = 0;i<20;i++) {\n            if (location!=length+1) { //check if its not first or not last addr then swap last with item to be deleted\n                whiteListNodesList[location-i-1] = whiteListNodesList[length-i];}\n            delete whiteListNodesList[length-i];\n        }\n\n        whiteListNodesList.length -= 20;\n\n        lastEventBlockNumber = block.number;\n        emit LogNodeRemoved(_nodeAddr);\n    }\n\n    function getWhiteList() public view returns (bytes memory tempBytes) {\n        tempBytes = whiteListNodesList;\n    }\n\n    function getProofHash() public view returns (bytes32 tempBytes) {\n        tempBytes = proofHash;\n    }\n\n    function getLastEventBlockNumber()  public view returns (uint) {\n        return lastEventBlockNumber;\n    }\n\n}",
  "sourcePath": "/home/junaid/Desktop/work/in3-contracts/contracts/IN3WhiteList.sol",
  "compiler": {
    "name": "solc",
    "version": "0.5.10+commit.5a6ea5b1.Emscripten.clang"
  },
  "schemaVersion": "3.0.17",
  "updatedAt": "2019-11-11T09:41:14.716Z",
  "devdoc": {
    "methods": {}
  },
  "userdoc": {
    "methods": {
      "constructor": "CONSTRUCTOR",
      "whiteListNode(address)": {
        "notice": "FUNCTIONS"
      }
    }
  }
}